:101C00001F92CDB7DEB711248FE594E09EBF8DBF44
:101C100084B714BE982F9D7009F015D185E08EBD54
:101C200082E08BB988E18AB986E880BD80E189B914
:101C30008EE0F6D0BD9A86E040E35CEF34E020E22F
:101C40005DBD4CBD38BF08B602FEFDCF98B39227EC
:101C500098BBA8958150A1F700E01EE01F70812F6E
:101C6000806CE82E412C512C23E0B22EAA24A394A0
:101C700035E0932E41E1842ECCD0813479F4C9D063
:101C80008983D2D08981823811F482E005C08138FD
:101C900011F486E001C083E0B8D0B4C0823411F4FE
:101CA00084E103C0853419F485E0C6D0ABC0853526
:101CB00049F4AFD0F82EADD04F2C512C582A440CFB
:101CC000551C9FC0863521F484E0B6D080E0E4CF77
:101CD000843609F05CC09DD09CD0F82E9AD0782E26
:101CE00080E6C82ED12C90E6F90E93D0F6018193B0
:101CF0006F01FE12FACF98D04114510401F52091E2
:101D000060002093E400809161008093E500909151
:101D10007E009093E60090917F009093E7008F7093
:101D200030E0382B2F5031093F7020937E00832FF5
:101D3000806C80937F0000936000E0926100F5E486
:101D40007F1201C0FFCFF201B7BEE89507B600FCD5
:101D5000FDCFA201A0E6B0E08C9112969D0121502A
:101D60003109F901208190E0922BFA010C01A7BE04
:101D7000E89511244E5F5F4FFA12EECFF20197BE45
:101D8000E89507B600FCFDCF87BEE8953BC08437D9
:101D900059F53FD03ED0F82E3CD046D06201F40C2D
:101DA000C114D10419F48091E40017C0F1E0CF16FA
:101DB000D10419F48091E50010C08EE1C816D10459
:101DC00019F48091E60009C09FE1C916D10419F405
:101DD0008091E70002C0F6018491FFEFCF1ADF0A7D
:101DE00014D0FC10DDCF0EC0853739F41DD08EE144
:101DF0000CD083E90AD087E04FCF813511F488E019
:101E00000FD012D080E101D037CF5D9BFECF8CB9CF
:101E100008955F9BFECF5C9901C0A8958CB1089591
:101E200098E191BD81BD0895F4DF803219F088E01A
:101E3000F7DFFFCF84E1E9CFCF93C82FEADFC150AE
:101E4000E9F7CF91F1CF282E80E0EADFEFE0FF271E
:021E50000994F3
:021FFE000206D9
:0400000300001C00DD
:00000001FF
